:100000000C942A000C948C000C94B5000C943C00C9
:100010000C943C000C943C000C943C000C943C0070
:100020000C943C000C943C000C943C000C943C0060
:100030000C943C000C943C000C943C000C943C0050
:100040000C943C000C943C000C94DE000C943C009E
:100050000C943C0011241FBECFE5D4E0DEBFCDBF21
:1000600010E0A0E6B0E001C01D92A636B107E1F7AE
:100070000E9446010C9469010C940000982F8FB7E0
:100080008F778FBF992389F48A988BB780648BBF51
:10009000662319F485B783601AC0613051F585B7BE
:1000A000826085BF85B78E7F12C0913091F48B98A6
:1000B0008BB780688BBF662319F485B78C6007C047
:1000C0006130B9F485B7886085BF85B78B7F85BF00
:1000D00010C0923071F4BA988BB780628BBF6623E0
:1000E00019F484B7806404C0613019F484B78F7B3D
:1000F00084BF8FB780688FBF08959093610080930D
:100100006000089590936300809362000895909337
:1001100065008093640008951F920F920FB60F92AE
:1001200011242F933F934F935F936F937F938F93FC
:100130009F93AF93BF93EF93FF93E0916000F09193
:100140006100309709F00995FF91EF91BF91AF9150
:100150009F918F917F916F915F914F913F912F91DF
:100160000F900FBE0F901F9018951F920F920FB611
:100170000F9211242F933F934F935F936F937F932D
:100180008F939F93AF93BF93EF93FF93E0916200A0
:10019000F0916300309709F00995FF91EF91BF91BD
:1001A000AF919F918F917F916F915F914F913F910F
:1001B0002F910F900FBE0F901F9018951F920F92C6
:1001C0000FB60F9211242F933F934F935F936F932A
:1001D0007F938F939F93AF93BF93EF93FF93E091A0
:1001E0006400F0916500309709F00995FF91EF9157
:1001F000BF91AF919F918F917F916F915F914F913F
:100200003F912F910F900FBE0F901F901895A89AB5
:1002100080E197E229E130E0F9013197F1F70197A8
:10022000D9F7A89880E197E229E130E0F901319708
:10023000F1F70197D9F70895AA9A80E197E229E1A9
:1002400030E0F9013197F1F70197D9F7AA9880E1E9
:1002500097E229E130E0F9013197F1F70197D9F7F9
:100260000895AB9A80E197E229E130E0F9013197F6
:10027000F1F70197D9F7AB9880E197E229E130E0F7
:10028000F9013197F1F70197D9F70895A09AA89845
:10029000A19AA998A29AAA98A39AAB9881E060E043
:1002A0000E943E0087E091E00E947D008CE191E099
:1002B0000E94820081E391E00E94870020E533ECF8
:1002C000A99AC9010197F1F7A998C9010197F1F716
:0602D000F7CFF894FFCF08
:00000001FF
